:020000040800F2
:10000000080600200101000873170008B716000851
:1000100071170008FD0200087520000800000000AC
:10002000000000000000000000000000F11D0008BA
:10003000FF02000800000000391D0008F31D000841
:100040001B0100081B0100081B0100081B01000820
:100050001B0100081B0100081B0100081B01000810
:100060001B0100081B0100081B0100081B01000800
:100070001B0100081B0100081B0100081B010008F0
:100080001B0100081B0100081B0100081B010008E0
:100090001B0100081B0100081B0100081B010008D0
:1000A0001B0100081B0100081B0100081B010008C0
:1000B0001B0100081B0100081B0100081B010008B0
:1000C0001B0100081B0100081B0100081B010008A0
:1000D0001B0100081B0100081B0100081B01000890
:1000E0001B0100081B0100081B010008DFF80CD0F1
:1000F00000F084F8004800472D250008080600207D
:100100000648804706480047FEE7FEE7FEE7FEE7B1
:10011000FEE7FEE7FEE7FEE7FEE7FEE7591E000802
:10012000ED000008202A04DB203A21FA02F0002129
:10013000704721FA02F3D040C2F1200291400843F7
:100140001946704740EA01039B0703D009E008C93C
:10015000121F08C0042AFAD203E011F8013B00F88C
:10016000013B521EF9D27047D2B201E000F8012BD8
:10017000491EFBD270470022F6E710B513460A4627
:1001800004461946FFF7F0FF204610BD421C10F848
:10019000011B0029FBD1801A70472DE9F05F05464D
:1001A000002092469B4688460646814640241BE036
:1001B0002846414647462246FFF7B4FF53465A4673
:1001C000C01A914110D311461846224600F028F873
:1001D0002D1A67EB01084F4622460120002100F04E
:1001E0001FF817EB00094E41201EA4F10104DFDCCB
:1001F000484631462A464346BDE8F09F064C074D27
:1002000006E0E06840F0010394E8070098471034E6
:10021000AC42F6D3FFF76EFF4830000868300008A4
:10022000202A04DB203A00FA02F1002070479140B6
:10023000C2F1200320FA03F31943904070470000F5
:1002400070B5044600688168C943C9071CD181683C
:1002500021F00101816000F0FDFA05460FE000BFCA
:1002600000F0F8FA401B022809D9A06A40F01000FB
:10027000A062E06A40F00100E062012070BD2068E9
:100280008068C043C007EBD0002070BDF8B50026E1
:100290000446009600688168C943C90728D0816870
:1002A00041F001018160134813490068B0FBF1F08F
:1002B00000E0401E00900028FBD100F0CBFA05467C
:1002C00011E000BF00F0C6FA401B02280BD9A06A5B
:1002D00040F01000A062E06A40F00100E06284F8A3
:1002E00024600120F8BD20688068C043C007E9D1C0
:1002F0000020F8BD3400002040420F00FEE77047A8
:10030000F8B50024009490F824202546012A12D044
:10031000012280F824204A681F23072A0DD206688C
:10032000776B521E02EB820293409F430B6893400F
:100330001F43776319E00220F8BD06680D2A0AD230
:10034000376BD21F02EB820293409F430B689340AE
:100350001F43376309E0F76A0D3A02EB82029340CC
:100360009F430B6893401F43F7620A6807230668A0
:100370000A2A0AD3F7680A3A02EB420293409F43E3
:100380008B6893401F43F76008E0376902EB420235
:1003900093409F438B6893401F4337610A68102A3C
:1003A00001D0112A20D1124B02689A4217D19368CA
:1003B0001B0219D4936843F4000393600968102961
:1003C00012D10C490C4A0968B1FBF2F101EB810131
:1003D000490000E0491E00910029FBD104E0816A38
:1003E00041F020018162012480F824502046F8BDAC
:1003F000002401403400002040420F000068C06C1F
:10040000704700002DE9F0414FF0000704003D4621
:100410007ED0A06A002628B9E66284F824602046CF
:1004200000F07EF82046FFF70BFFA16AC90600D452
:1004300020B1A06A40F01000A06269E0A16A21F436
:10044000885141F00201A1626268E169E3680A43F0
:1004500047EA43010A43A1684FF48077B94209D0C3
:10046000012907D05FF00001D4F814C0BCF1010FDE
:1004700002D00AE03946F7E7F3B1A36A43F020035C
:10048000A362E36A43F00103E3622368D3F804C084
:100490002CF4694C4CEA010CC3F804C021688B6849
:1004A000DFF870C003EA0C0313438B60A168B94204
:1004B0000BD0012909D00CE0DFF85CC0A3690CEB7C
:1004C00043330B4343F40061DFE7218A0D05A5F5B3
:1004D00080152168CB6A23F470032B43CB6221681B
:1004E00089680E4B1940914208D1E662A16A21F059
:1004F000020141F00101A162BDE8F081A06A20F093
:10050000020040F01000A062E06A40F00100E062EA
:100510000120F1E7FDF7E1FF00E0FFFFFE0E1FFF06
:1005200010B586B0002100910191029103911A4CFF
:1005300003681A4903221A48A34211D18B6943F474
:1005400000738B618B6903F4007304938B6943F030
:1005500004038B61896901F004010491012113E016
:10056000104CA34215D18B6943F480638B618B6976
:1005700003F4806304938B6943F004038B618969FE
:1005800001F0040104910221CDE90012694600F056
:100590007DF806B010BD00000024014000100240AC
:1005A000000801400028014070B5044690F824007E
:1005B00001280DD0012084F824002046FFF766FEB4
:1005C00002004FF0000005D084F82400104670BDF2
:1005D000022070BDA16A40F20123994341F4807169
:1005E000A1621F4D23681F49AB4218D10E6816F453
:1005F000702F14D0A66A46F48016A6620E6876059F
:1006000005D5A66A26F4005646F48056A662A66A68
:10061000F6040AD5E66A26F00606E66206E0A66A51
:1006200026F48016A6625E68E9E7E06284F824009A
:100630006FF00200186020688368C3F34243072B01
:1006400005D1A84208D1096811F4702F04D081683F
:1006500041F480118160B9E7816841F4A001F9E7B4
:10066000002801400424014070B5044600F0F2F86F
:100670000546601C02D004480078044400F0EAF803
:10068000401BA042FAD370BD280000202DE9F84F8E
:10069000DFF890A100220AF1040B144601274FF065
:1006A0000F090BF1040E00BF0B6807FA04F52B408D
:1006B000AB4274D1DFF870C14E68A6EB0C086645FA
:1006C0002BD00DDC032E34D005DC36B3012E19D02F
:1006D000022E2FD11BE0112E16D0122E2AD119E096
:1006E000B8F5881F19D006DCB8F5803F15D0B8F5ED
:1006F000801F1FD111E0B8F5001F0ED0B8F5041F00
:1007000018D10AE0CA6815E0CA68121D12E0CA686A
:1007100008320FE0CA680C320CE08A682AB1012A5C
:100720004FF0080203D0456104E0042202E00561B5
:1007300000E00022FF2B01D8064601E000F104068C
:100740004FEA840501D9A5F12005D6F800C009FAC1
:1007500005F82CEA080C02FA05F54CEA050CC6F877
:1007600000C04D68ED0057D5304DAE6946F001062A
:10077000AE61AD6924F0030605F0010500952C4D2E
:1007800006EB050CDCF80850A6074FEA167809FAC4
:1007900008F6B543274EB04202D1002610E03BE0F8
:1007A000254EB04201D101260AE0244EB04201D1CB
:1007B000022605E0224EB04201D1032600E00426C5
:1007C00006FA08F62E43CCF808604D68DAF80060A7
:1007D000ED03554601D51E4300E09E432E604D6853
:1007E000DBF80060AD035D4601D51E4300E09E438B
:1007F0002E604D68DEF80060ED02754601D51E439F
:1008000000E09E432E604D68AD020E4D2E6801D56E
:100810001E4300E09E432E60641C102CFFF444AF86
:10082000BDE8F88F000401400000111000100240E4
:100830000000014000080140000C01400010014090
:10084000001401400C0401400AB101617047090421
:10085000FBE7000001488068704700002800002086
:1008600002488168027811448160704728000020A6
:10087000074810B5016841F010010160032000F045
:1008800067F8002000F006F800F024F8002010BD02
:100890000020024070B50D4D04464FF47A7128785F
:1008A000B1FBF0F00A490968B1FBF0F000F028FE56
:1008B00048B9102C07D200222146501E00F028F81B
:1008C00000206C6070BD012070BD00002800002079
:1008D000340000200C4808B5816941F001018161B4
:1008E000816901F001010091C16941F08051C1614C
:1008F000C06900F0805000900448416821F0E06138
:1009000041F08061416008BD0010024000000140DC
:10091000F0B40E4B1B680C46C3F30223C3F107056A
:10092000042D00D90425191D072901D2002300E058
:10093000DB1E012606FA05F1491E214099409E4022
:10094000761E16403143F0BC01F0E6B90CED00E034
:10095000064900F0070208684FF6FF03184040EA16
:100960000220034A10430860704700000CED00E0CD
:100970000000FA052DE9F84305460078354CC0071C
:1009800054D0E0690026C00008D4E06940F08050EF
:10099000E061E069012600F0805000902E48016877
:1009A000C90512D40168804641F480710160FFF7E7
:1009B00051FF074605E000BFFFF74CFFC01B64284E
:1009C00023D8D8F80000C005F6D5206A10F440708E
:1009D00021D0A98801F4407181421CD0206A1F49AE
:1009E000012220F440700A6000220A602062C007E1
:1009F00011D0FFF72FFF074641F2883808E000BF0B
:100A0000FFF728FFC11B414502D90320BDE8F88349
:100A1000206A8007F4D5206A696820F44070084392
:100A200020621EB1E06920F08050E06128788007E4
:100A300005D56068A96820F44040084360602878C4
:100A4000C00605D56068E96820F48000084360604E
:100A50000020DBE7001002400070004040044242EA
:100A60002DE9F047DFF8548105460E46D8F800001E
:100A700000F00700B0420CD2D8F8001021F00701B6
:100A80003143C8F80010D8F8000000F00700B04269
:100A90006FD128684A4C810712D5400703D560689A
:100AA00040F4E06060602878000703D5606840F497
:100AB000605060606068A96820F0F00008436060E2
:100AC0002878C00744D06868012816D02168022819
:100AD00016D0890700294CDA616821F0030101432F
:100AE0006160FFF7B7FE6968074641F28830012967
:100AF0000ED00229814618D026E021688903E9E753
:100B00008901E7E7FFF7A6FEC11B494501D918E0B7
:100B100081466068C0F381000128F3D118E000BF6E
:100B2000FFF798FEC11B49450BD86068C0F38100F0
:100B30000228F5D10CE000BFFFF78CFEC11B494530
:100B400002D90320BDE8F087606810F00C0FF3D1E4
:100B5000D8F80010404601F00701B1420BD90168F6
:100B600021F0070131430160006800F00700B04246
:100B700001D00120E6E72878400705D56068E968DC
:100B800020F4E060084360602878000706D56068BC
:100B9000296920F4605040EAC100606000F036F836
:100BA0006168084AC1F30311515CC84006490860F6
:100BB0000020FFF76FFE0020C4E700000020024085
:100BC00000100240542F000834000020044805495A
:100BD00000684968044AC1F30221515CC84070476B
:100BE0003400002000100240642F0008044805492A
:100BF00000684968044AC1F3C221515CC84070478B
:100C00003400002000100240642F000812A185B0BB
:100C10000FC98DE80F0014A0144A006804905168B1
:100C2000134801F00C03042B10D0082B0ED1C1F394
:100C30008343C9031DF803000AD5516804AAC1F310
:100C40004041515C0A4A5043B0FBF1F005B0704797
:100C500008494843FAE700000203040506070809AB
:100C60000A0B0C0D0E0F10100102000000100240C4
:100C700000127A0000093D002DE9F84F0446007883
:100C8000B94DC00748D06868C0F38100012807D07B
:100C90006868C0F38100022809D16868C00306D5DE
:100CA0002868800338D5606800286FD034E0606819
:100CB000B0F5803F0BD010B1B0F5A02F11D028684F
:100CC00020F480302860286820F4802002E0286822
:100CD00040F480302860606888B1FFF7BBFD0646AD
:100CE00009E0286840F480202860F0E7FFF7B2FDB3
:100CF000801B642875D828688003F7D50CE0FFF7BF
:100D0000A9FD064605E000BFFFF7A4FD801B64288F
:100D1000F0D828688003F7D42078944E80074FF0ED
:100D200001094FF000083BD5686810F00C0F07D0A0
:100D30006868C0F38100022809D16868C00306D43E
:100D40002868800714D5206901281FD110E0206988
:100D5000B0B1C6F80090FFF77DFD074605E000BF83
:100D6000FFF778FDC01B0228C4D828688007F7D594
:100D70002868616920F0F80040EAC10028600FE0AF
:100D8000C6F80080FFF766FD074606E0E9E000BF11
:100D9000FFF760FDC01B022823D828688007F7D41E
:100DA000207800072CD57248A169D9B1C0F800900D
:100DB000FFF750FD074604E0FFF74CFDC01B02287B
:100DC0000FD8686A8007F7D56A484FF4FA5100686F
:100DD000B0FBF1F0009000BF0098411E0091FAD2E4
:100DE0000EE080E0C0F80080FFF734FD074604E025
:100DF000FFF730FDC01B022875D8686A8007F7D45A
:100E00002078400760D5E8690027C00008D4E86969
:100E100040F08050E861E869012700F080500090C0
:100E200055480168C90513D40168834641F48071AF
:100E30000160FFF70FFD824606E000BFFFF70AFDE5
:100E4000A0EB0A0064284ED8DBF80000C005F5D5F9
:100E5000E06801280AD008B1052813D0286A20F0DC
:100E600001002862286A20F0040002E0286A40F0AD
:100E700001002862E06841F2883B98B1FFF7EAFC84
:100E800082460BE0286A40F004002862EEE700BFCB
:100E9000FFF7E0FCA0EB0A0159455AD8286A800701
:100EA000F6D50CE0FFF7D6FC824605E0FFF7D2FC52
:100EB000A0EB0A0159454CD8286A8007F6D41FB127
:100EC000E86920F08050E861E06988B36968C1F39F
:100ED0008101022945D00228C6F8608004D0FFF7BE
:100EE000B9FC044638E034E0FFF7B4FC074604E000
:100EF000FFF7B0FCC01B02282BD828688001F7D46C
:100F0000206AB0F5803F05D16868A16820F4003000
:100F100008436860D4E908010843696821F4741142
:100F200008436860C6F86090FFF794FC044606E04A
:100F300015E000BFFFF78EFC001B022809D82868C7
:100F40008001F7D50BE000BFFFF784FC001B0228EF
:100F500002D90320BDE8F88F28688001F4D400206E
:100F6000F8E70120F6E700000010024000004242CE
:100F700080044242340000200070004070B504003C
:100F800005D00025A56294F8510010B104E00120BD
:100F900070BD204600F034F8022084F8510020682B
:100FA000016821F040010160D4E901010843D4E95E
:100FB00003121143084361690843218B01F4007156
:100FC0000843E1690843216A0843A16A084321688C
:100FD0000860A069042101EA1040616A08432168A1
:100FE00048602168E06A08612068C16921F40061F5
:100FF000C1616565012084F85100002070BD0000CA
:1010000030B585B0002400940194029403940068E4
:101010001449884223D11448816941F48051816187
:10102000816901F480510491816941F00401816179
:1010300080690E4D00F004000490A0200090022072
:1010400001900320039069462846FFF71FFB4020CC
:10105000CDE90004694628460294FFF717FB05B066
:1010600030BD000000300140001002400008014087
:101070002DE9F84F044640680026984617460D466D
:101080004FF00409B0F5827F01D1A06890B194F8C7
:101090005000012819D04FF0010B84F850B0FFF731
:1010A000D9FB009094F851004FF0000A01280ED0AF
:1010B00002267FE084F8519013460A462046CDF878
:1010C000008000F031F9BDE8F88F0220FBE7002D29
:1010D0006FD0002F6DD084F85190C4F854A0A56350
:1010E000A787E787C4F830A0A4F834A0A4F836A0F6
:1010F000C4F840A0C4F844A0A0684FF40047B84228
:1011000004D12068016821F48041016020680168F1
:10111000490603D4016841F040010160E068B8B1BC
:1011200033E020688168C90706D0007B05F8010B11
:10113000E08F401EE0870BE0B8F1000F23D0B8F13C
:10114000FF3F05D0FFF786FB0099411A41451AD2AF
:10115000E08F0028E5D11BE020688168C90706D030
:10116000C06825F8020BE08F401EE0870DE0B8F163
:10117000000F08D0B8F1FF3F07D0FFF76BFB0099D5
:10118000411A414501D3032614E0E08F0028E3D142
:101190006068B0F5827F0AD1A068B84202D0B0F58D
:1011A000806F04D12068016821F040010160606D0A
:1011B00000B1012684F851B084F850A0304682E78F
:1011C0002DE9F84F044690F850000026994617463E
:1011D0000D4601280DD04FF0010B84F850B0FFF7F9
:1011E00039FB804694F85100B246012804D002260B
:1011F00094E00220BDE8F88F002D7BD0002F79D03D
:10120000032084F85100C4F854A02563A786E7861C
:10121000C4F838A0A4F83CA0A4F83EA0C4F844A0A8
:10122000C4F840A0A068B0F5004F04D12068016860
:1012300041F48041016020680168490603D40168D7
:1012400041F040010160E068B0F5006F606804D0D3
:1012500030B3E08E012823D03EE010B1E08E0128AB
:101260001AD135F8021B206805E0206881688907DB
:1012700006D535F8021BC160E08E401EE0860BE00B
:10128000B9F1000F34D0B9F1FF3F05D0FFF7E2FA12
:10129000A0EB080149452BD2E08E0028E5D11EE0E5
:1012A000216815F8010B087306E02068816889073A
:1012B00006D515F8011B0173E08E401EE0860BE099
:1012C000B9F1000F14D0B9F1FF3F05D0FFF7C2FA12
:1012D000A0EB080149450BD2E08E0028E5D14B4632
:1012E000012202212046CDF8008000F036FD10B129
:1012F000032613E011E042464946204600F01DFD5A
:1013000018B101262020606508E0A06818B920689F
:10131000C16880680090606D00B1012684F851B00A
:1013200084F850A0304665E72DE9F84F044690F860
:10133000500000260A9F9A4693460D464FF001083A
:1013400001280ED0012084F85000FFF783FA81466F
:1013500094F85100616801280CD0B1F5827F07D163
:1013600002E00220BDE8F88FA16809B9042801D085
:101370000226BDE055B1BBF1000F07D0BAF1000F56
:1013800004D094F85100012802D004E00126AFE017
:10139000052084F8510000206065C4F838B0A4F836
:1013A0003EA0A4F83CA02563A4F836A0A4F834A07D
:1013B0002064606420680168490603D4016841F034
:1013C00040010160E068B0F5006F606804D0E8B3E8
:1013D000E08E01283BD06AE010B1E08E01282ED1CA
:1013E000216835F8020BC860E08E401EE08626E0DA
:1013F000B8F1000F0DD0E08E58B1206881688907E0
:1014000007D535F8021BC160E08E401EE0864FF024
:101410000008E08F58B120688168C90707D0C0680C
:101420002BF8020BE08F401EE0874FF00108781C7C
:1014300005D0FFF70FFAA0EB0900B84246D2E08EC4
:101440000028D5D1E08F0028D2D136E0FFE721680F
:1014500015F8010B0873E08E401EE08627E000BF00
:10146000B8F1000F0DD0E08E58B12068816889076F
:1014700007D515F8011B0173E08E401EE0864FF082
:101480000008E08F58B120688168C90707D0C0689C
:101490000BF8010BE08F401EE0874FF00108781C2D
:1014A00005D0FFF7D7F9A0EB0900B8420ED2E08EC5
:1014B0000028D5D1E08F0028D2D13B46012202215D
:1014C0002046CDF8009000F048FC08B103260FE05C
:1014D0004A463946204600F030FC18B1012620204B
:1014E000606505E0A06818B92068C1688068009050
:1014F000012084F85100002084F85000304631E784
:1015000010B5401EB0F1807F01D3012010BD4FF017
:10151000E02460610F21601700F0FEFB0020A06155
:1015200007202061002010BD70B5040004D094F89D
:101530003900002510B106E0012070BD84F8385054
:10154000204600F023F8242084F839002068C16880
:1015500021F40051C160204600F0A2FC206801691E
:1015600021F4904101612068416921F02A01416123
:101570002068C16841F40051C160E563202084F80F
:10158000390084F83A00002070BD000030B585B005
:101590000024009401940294039400681449884242
:1015A00023D11448C16941F40031C161C16901F41A
:1015B00000310491816941F00401816180690E4D1F
:1015C00000F0040004900420009002200190032009
:1015D000039069462846FFF759F80820CDE9000432
:1015E000694628460294FFF751F805B030BD000067
:1015F0000044004000100240000801402DE9F8437B
:10160000044690F839001F4616460D46202850D152
:10161000A5B19EB194F8380001284AD0012084F881
:1016200038004FF00008C4F83C80212084F83900CD
:10163000FFF710F9A6848146E68426E00120BDE884
:10164000F883E08C401EE084A0684B46B0F5805FD4
:101650004FF000024FF080012046009703D000F0C9
:10166000D7FCE8B90DE000F0D3FCC8B928882168A0
:10167000C0F308004860206908B16D1C05E0AD1C8E
:1016800003E0216815F8010B4860E08C0028D8D1F0
:101690004B46002240212046009700F0B9FC08B1DB
:1016A0000320CCE7202084F8390084F8388000201B
:1016B000C5E70220C3E7FEE73EB500240D480094CD
:1016C00001940B49029401600125C0E9024544617F
:1016D00005614FF460214460C161FEF793FECDE9DE
:1016E0000045694603480294FEF70AFE3EBD00002D
:1016F00000240140D00000203EB500240D48009495
:1017000001940B49029401600125C0E9024544613E
:1017100005614FF460214460C161FEF773FE0095DE
:10172000CDE9015469460348FEF7EAFD3EBD0000DD
:1017300000280140000100200C480B494FF40072C2
:1017400001604FF48271416000218160C1600161DC
:10175000C0E905122022C0E90721416281620A2105
:10176000C162FFF70BBC00000030014030010020D7
:10177000FEE7704708B5002000F0FAF850208DF819
:10178000000073208DF8010064230222694603489B
:10179000FFF716FD012000F0EBF808BD380000202F
:1017A00070B5054600F00DF90446C0F380166EB121
:1017B00015B1C4F3420028704021072000F076FAEA
:1017C000A00603D52021072000F070FA304670BD36
:1017D0000FB47CB514460D460646582209A95D484B
:1017E000FEF7B0FC5C4B0120DE60DD801C8100F068
:1017F000BFF8002000F0B2F80520FEF735FF082101
:10180000002000F053FA3F21012000F04FFA03219D
:10181000022000F04BFA0321084600F047FA0321AA
:10182000042000F043FA0221052000F03FFA0F21C6
:10183000062000F03BFA0E21072000F037FA0021C5
:10184000082000F033FA0021092000F02FFAE724E5
:101850008DF803408DF802408DF801408DF804406A
:101860008DF80040052269460A2000F037FAC220B0
:101870008DF803008DF802008DF801008DF804004A
:101880008DF80000052269460B2000F027FAC321DD
:101890000C2000F00BFAC4210D2000F007FAC5213E
:1018A0000E2000F003FAC6210F2000F0FFF98DF89A
:1018B00003408DF802408DF801408DF804408DF80A
:1018C000004005226946102000F008FA002111208E
:1018D00000F0ECF90021122000F0E8F900211320BB
:1018E00000F0E4F90021142000F0E0F900211520B7
:1018F00000F0DCF90021162000F0D8F9FFF73AFFDC
:1019000000211C2000F0D2F900211D2000F0CEF9AA
:1019100000F038FF0F21084600F030F9032000F0F6
:1019200007F9012000F0D6F8022000F0B8F800F026
:1019300029F8202000F01AF900F0A6F84C2000F059
:10194000C2F800F037F800F031F800F053F87CBC32
:101950005DF814FB3800002000000020020003485E
:101960000189C06800D00122FEF76EBF0000002090
:1019700002000348C188C06800D00122FEF764BF9E
:101980000000002010B51D2000F040F820F00401F8
:101990001D2000F08BF900211C2000F087F902497E
:1019A0000020C87010BD000000000020FF21E220D0
:1019B00000F07CB9FF21E12000F078B9602000F050
:1019C00025B8072000F022B813B5052269460A2081
:1019D00000F084F905226946102000F07FF90448E0
:1019E0008178202900D32021112000F05FF91CBD4F
:1019F0000000002010B5002000F008F820F00201DF
:101A0000BDE81040002000F051B9000038B5044690
:101A10000020FFF7ADFF04F01F008DF800006423E5
:101A2000012269460848FFF7CBFB642301220648E0
:101A30000DF10101FFF71CFB9DF801400120FFF7AC
:101A400097FF204638BD000038000020F8B5044656
:101A500015460E460020FFF78BFF04F01F008DF89F
:101A600000006423012269460648FFF7A9FB6423AE
:101A70002A4631460348FFF7FBFA0120FFF778FFBB
:101A8000F8BD0000380000207021072000F00EB9DA
:101A900008B13F2100E00021012000F007B910B596
:101AA00004460020FFF7B2FF20F00C011CB1012C0E
:101AB00006D041F00C01BDE81040002000F0F6B85F
:101AC00041F00801F7E77F2800D37F200146052079
:101AD00000F0ECB82DE9F04107464FF00008062071
:101AE000FFF794FF114D002620F028046E71022F9D
:101AF0000ED0012F10D06E712146062000F0D6F8CE
:101B00000620FFF783FFA0420BD14FF0010809E048
:101B10006E7144F02004EFE70120687144F008047E
:101B2000EAE76E714046BDE8F08100000000002049
:101B300010B504460620FFF769FF20F00601032CCC
:101B40000DD0022C05D0012C06D054B1042C06D0A7
:101B500007E041F0040104E041F0020101E041F03E
:101B60000601BDE81040062000F0A0B8202800D3F0
:101B700020200149887070470000002000F00F000D
:101B800060F31F11042000F091B870B505460C46B3
:101B90000020FFF73BFF20F0010040F00201002091
:101BA00000F084F80120FEF75FFD2146284600F092
:101BB00061F80120FFF7D2FE0120FEF755FDBDE8D8
:101BC00070400020FFF7CABE10B50020FFF7C6FE28
:101BD000FFF7F0FEBDE81040FFF7E8BE2DE9F04149
:101BE00015460E460446FFF7ECFE0746002020701F
:101BF0007021072000F05AF8C7F340102070C7F397
:101C000000103070C7F380102870BDE8F08100002C
:101C10003EB50C460546FFF737FF21462846FFF73D
:101C2000B4FFFEF717FE0446012201A90820FFF7C2
:101C30000DFFFFF7C6FE10F0300F04D1FEF70AFECD
:101C4000001B0A28F0D30A4A02A96846FFF7C6FF1C
:101C5000074C9DF80050207810B1FFF7AFFE607080
:101C60000020FFF79DFDFFF7A5FE28463EBD0000C2
:101C70000000002038B505460C460020FFF778FE2E
:101C8000A0208DF800006423012269460648FFF772
:101C900097FA6423224629460348FFF791FA012068
:101CA000FFF766FE38BD00003800002038B5054655
:101CB0000C460020FFF75CFE45F020008DF8000088
:101CC0008DF801406423022269460348FFF778FA41
:101CD0000120FFF74DFE38BD38000020F8B504465E
:101CE00015460E460020FFF743FE44F020008DF815
:101CF00000006423012269460648FFF761FA642365
:101D00002A4631460348FFF75BFA0120FFF730FE11
:101D1000F8BD0000380000200907090E002806DA87
:101D200000F00F0000F1E02080F8141D704700F172
:101D3000E02080F800147047704738B50B460092D9
:101D400004460022802100F008F8002804D0606DCD
:101D500040F020006065032038BD2DE9F0411D46AC
:101D600017460E460446DDF8188035E0681C33D06F
:101D70002DB1FEF76FFDA0EB0800A8422CD3206820
:101D8000416821F0E00141606068B0F5827F0BD1CD
:101D9000A068B0F5004F02D0B0F5806F04D1206884
:101DA000016821F040010160A06AB0F5005F0AD12E
:101DB000206801684DF6FF721140016020680168DB
:101DC00041F400510160012084F85100002084F8A2
:101DD00050000320BDE8F0812068806836EA0000EA
:101DE00004D00020B842C1D10020F3E70120F9E778
:101DF0007047FEF735BD30B593B028216846FEF731
:101E0000BAF914210AA8FEF7B6F900240225012028
:101E10000F94049000951020059012944FF46010D8
:101E2000CDE908401194109407956846FEF724FF09
:101E30000F20CDE90A056802CDE90C4002210AA86D
:101E40000E94FEF70DFEA80311900F950FA8FEF754
:101E500091FD13B030BD00000D48016841F0010153
:101E6000016041680B4A1140416001680A4A114013
:101E70000160016821F480210160416821F4FE01C4
:101E800041604FF41F0181600449C003086070473E
:101E9000001002400000FFF8FFFFF6FE08ED00E032
:101EA0002DE9F041044600680169E26821F44051DF
:101EB000114301612169A0680843616908432168F1
:101EC000CA6841F20C639A430243CA6020684169C0
:101ED000A26921F44071114341614C492068642595
:101EE000322688423CD1FEF781FE00EBC00101EBB7
:101EF000001061688900B0FBF1F7FEF777FE00EB98
:101F0000C00101EB00106168B0468900B0FBF1F040
:101F1000B0FBF5F06FF01801484307EB800106EBCA
:101F20000110B0FBF5F000F0F006FEF75FFE00EBED
:101F3000C00101EB001061688900B0FBF1F0B0FB5B
:101F4000F5F006EB0016FEF751FE00EBC00101EBC9
:101F5000001061688900B0FBF1F7FEF747FE3BE037
:101F6000FEF734FE00EBC00101EB00106168890050
:101F7000B0FBF1F7FEF72AFE00EBC00101EB001009
:101F80006168B0468900B0FBF1F0B0FBF5F06FF08E
:101F90001801484307EB800106EB0110B0FBF5F098
:101FA00000F0F006FEF712FE00EBC00101EB00109E
:101FB00061688900B0FBF1F0B0FBF5F006EB0016AC
:101FC000FEF704FE00EBC00101EB00106168890020
:101FD000B0FBF1F7FEF7FAFD00EBC00101EB0010DA
:101FE00061688900B0FBF1F0B0FBF5F06FF018010B
:101FF000484307EB800108EB0110B0FBF5F02168C6
:1020000000F00F0030448860BDE8F08100380140E6
:102010002DE9F041984617460E460446069D1DE000
:10202000681C1BD02DB1FEF715FCA0EB0800A842E0
:1020300014D92068C16821F4D071C1602068416959
:1020400021F001014161202084F8390084F83A0030
:10205000002084F838000320BDE8F0812068006883
:1020600036EA000004D00020B842D9D00020F3E7BF
:102070000120F9E7FEE700000FB4084B10B504A9F2
:1020800002AA039800F01CF8044602A9002000F000
:1020900048FA204610BC5DF814FB00002325000818
:1020A00002E008C8121F08C1002AFAD17047704721
:1020B000002001E001C1121F002AFBD1704700007F
:1020C0002DE9FF4F8DB00F460546002606E0252876
:1020D0000BD0DDE90F1290476D1C761C2878002884
:1020E000F5D111B03046BDE8F08F0024A246A146DC
:1020F0000122EC4900E0044315F8013F203B02FABD
:1021000003F00842F7D128782A2810D06FF02F0268
:102110002878A0F13001092914D80AEB8A0102EBD2
:10212000410144F0020400EB010A6D1CF0E701CF0D
:102130005FEA000A03D544F40054CAF1000A44F0EF
:1021400002046D1C28782E2817D115F8010F44F0D1
:1021500004042A280ED06FF02F022878A0F1300155
:1021600009290AD809EB890102EB410100EB0109B9
:102170006D1CF2E757F8049B6D1C28786C280FD073
:1021800006DC4C2817D068280DD06A2814D104E04A
:10219000742810D07A280FD10DE044F400140AE01E
:1021A00044F4801401E044F440146978814202D17F
:1021B00004F580146D1C6D1C2A786E2A1FD00CDC6F
:1021C000632A31D004DC002A8BD0582A11D1A3E035
:1021D000642A68D0692A0CD165E0732A2ED004DC09
:1021E0006F2A73D0702A04D19BE0752A6FD0782AA9
:1021F0006ED01046DDE90F129047761C50E1C4F313
:102200000250022806D0032809D0042801CF09D0A3
:10221000066045E101CFF117C0E9006140E101CF5F
:1022200006803DE106703BE117F8040B8DF80000D5
:1022300000208DF80100EB46012003E057F804BBB5
:102240004FF0FF3061074FF0000102D40DE008F1BC
:102250000101884649450FDA8045F8DB1BF8081074
:102260000029F4D108E008F1010188468142FADB37
:102270001BF808100029F6D1DDE90F23AAEB0800AE
:102280008146214600F036F9304400EB080604E0B0
:10229000DDE90F121BF8010B9047B8F10108F7D2E6
:1022A00021464846F7E00A21C4F302534FF0000BE1
:1022B0000891022B04D001CFC117032B09D00AE0EB
:1022C000FF1D27F00707F7E8020108E032E01FE0F2
:1022D00020E000B2C117042B01D140B2C117031E88
:1022E00071F1000307DA4FF0000CD0EB0C006CEB3F
:1022F00001012D2302E0230504D52B238DF8243082
:10230000012303E0E30701D02023F7E7984658E0D4
:102310000A2110E010210EE010204FF0000B089071
:102320000CE010214FF0000B44F004044FF00809BA
:10233000089103E008214FF0000B0891C4F3025309
:10234000022B04D001CF0021032B06D006E0FF1D95
:1023500027F00707F7E8020103E080B2042B00D161
:10236000C0B24FF0000823072BD5702A07D0DDF844
:1023700020C08CF0100C5CEA0B0C05D00EE0402362
:102380008DF82430012308E050EA010306D0302301
:102390008DF824308DF8252002239846DDF820C0E2
:1023A0008CF0080C5CEA0B0C0BD150EA010301D154
:1023B000630706D530238DF824304FF00108A9F1CA
:1023C0000109582A04D038A20B9208AA0A920BE0FD
:1023D0003AA2F9E75B46089AFDF7DFFE0B9B9B5C90
:1023E0000A9A521E0A92137050EA0102F2D10A9818
:1023F000ADEB000000F1200B600702D524F480341F
:1024000001E04FF00109D94502DDA9EB0B0000E026
:10241000002000EB0B0141440890AAEB010AE00305
:1024200006D4DDE90F232146504600F063F8064448
:102430004FF0000908E009A911F80900DDE90F12C1
:10244000904709F10109761CC145F4DBE0030CD586
:10245000DDE90F232146504600F04CF8064404E025
:10246000DDE90F1230209047761C0899481E08902D
:102470000029F5DC08E00A980A990078491C0A91BD
:10248000DDE90F129047761CBBF10001ABF1010BA7
:10249000F1DC21465046DDE90F2300F019F806442F
:1024A0006D1C1BE6092801003031323334353637D4
:1024B0003839616263646566000000003031323390
:1024C0003435363738394142434445460000000030
:1024D0002DE9F041044600251E461746880404D421
:1024E00005E039462020B0476D1C641EF9D528460A
:1024F000BDE8F0812DE9F041044600251E469046D6
:10250000C80301D5302700E02027880404D505E062
:1025100041463846B0476D1C641EF9D52846BDE8D3
:10252000F0810A68531C0B6010707047B4B0FEF75E
:102530009FF9FFF760FC00277E48009701970297FC
:102540000397816941F004018161816901F004010F
:102550000491816941F0080181618069DFF8D891B7
:1025600000F008004FF440740490002221464846D1
:10257000FEF76AF90120CDE900400220CDE90270A2
:1025800069464846FEF782F8FFF7D6F86C4C6B4870
:1025900020604FF4E130C4E901070C20E760C4E992
:1025A0000470A7612046E761FEF7BEFFFFF784F8DD
:1025B000FFF7A2F83622A4F1580115A8FDF7C2FDD5
:1025C000A4F15807F88EADF88A00A4F13808D8F8BD
:1025D00018102391B8F81C00ADF89000F88FADF8F2
:1025E00092001122A4F1180125A8FDF7ABFD97F880
:1025F00051008DF8A500786D2A90542216A96846DE
:10260000FDF7A0FD4FF4007251104846159BFFF7EF
:10261000DFF8262221460CA8FDF794FDE08CADF8EA
:102620005600D8F860101691B8F86400ADF85C0058
:10263000E08DADF85E00092204F1300118A8FDF725
:1026400081FD94F839008DF8690094F83A008DF80E
:102650006A00E06B1B90302210A96846FDF772FDFE
:102660000DF1300C9CE80F0000F080F800F08AF8C3
:10267000FFF7AAFA334CD4E90201FFF7A5F90020CD
:10268000FFF706FA3420FFF71EFA2020FFF76EFA54
:102690006D1C46F10006E80732D029488838FDF75E
:1026A00083FF27488838FDF7A9FE00B24042C117D2
:1026B00000EB917082102248628023A16030FFF706
:1026C000DBFCB4F9022020A12BA8FFF7D5FC1C48A5
:1026D00020216030FFF79CFA40B12BA8FDF756FD92
:1026E00082B20A232BA91648FEF788FF1420FDF7B3
:1026F000BBFF174868403043CAD100252E46C7E7C4
:102700000F48B838FDF750FF0D48B838FDF776FE92
:1027100002B20B4822800CA14030FFF7ADFC084804
:1027200020214030FFF774FA0028DFD00A2314225A
:1027300008A1D8E700100240000C0140004400400E
:1027400088010020180000200C202564200A0D00BC
:1027500000093D005472616E736D6974206261738B
:102760006172696C69200D0A000000000FB44022FC
:1027700010B502A90248FDF7E5FC10BC5DF814FB9A
:102780009000002010B5A0B0F4A104A8FFF774FCDD
:1027900004A8FDF7FBFC82B20A2304A9FC48FEF75B
:1027A0002DFF0020FFF732F901077AD5400701D548
:1027B000F8A100E0FEA104A8FFF75EFC04A8FDF765
:1027C000E5FC82B20A2304A9F148FEF717FF0120B5
:1027D000FFF71CF9C0F34014C0F30013C0F3C002AC
:1027E000C0F380018DE81E0000F00102C0F3400339
:1027F000F64904A8FFF740FC04A8FDF7C7FC82B225
:102800000A2304A9E248FEF7F9FE0220FFF7FEF8CA
:10281000C0F34014C0F30013C0F3C002C0F3800142
:102820008DE81E0000F00102C0F34003E84904A84F
:10283000FFF722FC04A8FDF7A9FC82B20A2304A931
:10284000D348FEF7DBFE0320FFF7E0F800F00302B9
:10285000E0A104A8921CFFF70FFC04A8FDF796FC6A
:1028600082B20A2304A9CA48FEF7C8FE0520FFF772
:10287000CDF800F07F02DEA104A8FFF7FDFB04A85D
:10288000FDF784FC82B20A2304A9C148FEF7B6FE14
:102890000620FFF7BBF80446000704D5D9A103E0E2
:1028A000FFE7DEA187E7E2A104A8FFF7E5FB04A8A4
:1028B000FDF76CFC82B20A2304A9B548FEF79EFE20
:1028C000032010EA540006D0012806D0022806D0C2
:1028D000032806D009E0DCA104E0E0A102E0E4A1C5
:1028E00000E0E8A104A8FFF7C7FB04A8FDF74EFC31
:1028F00082B20A2304A9A648FEF780FE05221DA97C
:102900000A20FFF7A3F89DF876009DF874209DF843
:1029100075108DE807009DF877309DF87820DEA1CE
:1029200004A8FFF7A9FB04A8FDF730FC82B20A2334
:1029300004A99748FEF762FE05221DA90B20FFF7A8
:1029400085F89DF876009DF874209DF875108DE847
:1029500007009DF877309DF87820DBA104A8FFF7E9
:102960008BFB04A8FDF712FC82B20A2304A9884855
:10297000FEF744FE01221DA90C20FFF767F89DF821
:102980007420DDA104A8FFF777FB04A8FDF7FEFB88
:1029900082B20A2304A97E48FEF730FE01221DA957
:1029A0000D20FFF753F89DF87420DDA104A8FFF770
:1029B00063FB04A8FDF7EAFB82B20A2304A974486A
:1029C000FEF71CFE01221DA90E20FFF73FF89DF81F
:1029D0007420DDA104A8FFF74FFB04A8FDF7D6FB88
:1029E00082B20A2304A96A48FEF708FE01221DA943
:1029F0000F20FFF72BF89DF87420DDA104A8FFF746
:102A00003BFB04A8FDF7C2FB82B20A2304A960487D
:102A1000FEF7F4FD05221DA91020FFF717F89DF819
:102A200076009DF874209DF875108DE807009DF8DC
:102A300077309DF87820D8A104A8FFF71DFB04A8E3
:102A4000FDF7A4FB82B20A2304A95148FEF7D6FD84
:102A50001120FEF7DBFF00F03F02DAA104A8FFF728
:102A60000BFB04A8FDF792FB82B20A2304A9484895
:102A7000FEF7C4FD1220FEF7C9FF00F03F02D8A107
:102A800004A8FFF7F9FA04A8FDF780FB82B20A2335
:102A900004A93F48FEF7B2FD1320FEF7B7FF00F090
:102AA0003F02D6A104A8FFF7E7FA04A8FDF76EFBE2
:102AB00082B20A2304A93648FEF7A0FD1420FEF7CF
:102AC000A5FF00F03F02D4A104A8FFF7D5FA04A89F
:102AD000FDF75CFB82B20A2304A92D48FEF78EFDA8
:102AE0001520FEF793FF00F03F02D2A104A8FFF7E4
:102AF000C3FA04A8FDF74AFB82B20A2304A92448BA
:102B0000FEF77CFD1620FEF781FF00F03F02D0A10A
:102B100004A8FFF7B1FA04A8FDF738FB82B20A2334
:102B200004A91B48FEF76AFD1C20FEF76FFFC0F3E7
:102B30004014C0F30013C0F3C002C0F380018DE85D
:102B40001E0000F00102C0F34003C84904A8FFF7CB
:102B500093FA04A8FDF71AFB82B289E10D0A2A2A2A
:102B60002A2A2A2A2A2A2A2A2A2A2A2A2A2A2A2AC5
:102B70002A2A2A2A2A2A2A2A2A2A2A2A2A2A2A2AB5
:102B80002A2A2A2A2A2A2A2A2A2A2A2A0D0A000036
:102B9000900000204352433A0D0A0909456E6162D4
:102BA0006C65642C2032204279746573200D0A0014
:102BB0004352433A0D0A0909456E61626C65642C03
:102BC00020312042797465200D0A00006C2F000826
:102BD000B02F000853455455505F41573A0D0A092C
:102BE000092564206279746573200D0A00000000D5
:102BF00052465F43483A0D0A09092564204348209C
:102C00000D0A00004461746120526174653A0D0A36
:102C10000909324D627073200D0A00004352433A95
:102C20000D0A090944697361626C6564200D0A002C
:102C30004461746120526174653A0D0A0909314D8D
:102C4000627073200D0A000052465F5057523A0DD1
:102C50000A09092D31386442200D0A0052465F509E
:102C600057523A0D0A09092D31326442200D0A00EB
:102C700052465F5057523A0D0A09092D36644220D8
:102C80000D0A000052465F5057523A0D0A090930AA
:102C90006442200D0A00000052585F506970653090
:102CA0002041646472733A0D0A0909253032582CA8
:102CB000253032582C253032582C253032582C25CE
:102CC00030325820200D0A0052585F50697065312B
:102CD0002041646472733A0D0A0909253032582C78
:102CE000253032582C253032582C253032582C259E
:102CF00030325820200D0A0052585F5069706532FA
:102D00002041646472733A0D0A090978782C787846
:102D10002C78782C78782C2530325820200D0A0019
:102D200052585F50697065332041646472733A0D84
:102D30000A090978782C78782C78782C78782C25E2
:102D400030325820200D0A0052585F5069706534A7
:102D50002041646472733A0D0A090978782C7878F6
:102D60002C78782C78782C2530325820200D0A00C9
:102D700052585F50697065352041646472733A0D32
:102D80000A090978782C78782C78782C78782C2592
:102D900030325820200D0A00545820416464727368
:102DA0003A0D0A0909253032582C253032582C2585
:102DB0003032582C253032582C2530325820200DF6
:102DC0000A00000052585F50575F50303A0D0A0910
:102DD000092564206279746573200D0A00000000E3
:102DE00052585F50575F50313A0D0A090925642047
:102DF0006279746573200D0A0000000052585F501C
:102E0000575F50323A0D0A090925642062797465CA
:102E100073200D0A0000000052585F50575F503376
:102E20003A0D0A09092564206279746573200D0A38
:102E30000000000052585F50575F50343A0D0A09A5
:102E4000092564206279746573200D0A0000000072
:102E500052585F50575F50353A0D0A0909256420D2
:102E60006279746573200D0A00000000FC2F0008D1
:102E70000A2304A91C48FEF7C1FB1D20FEF7C6FD6E
:102E80000446400701D519A100E01EA104A8FFF7E0
:102E9000F3F804A8FDF77AF982B20A2304A91248CC
:102EA000FEF7ACFBA00701D51CA100E022A104A8FD
:102EB000FFF7E2F804A8FDF769F982B20A2304A932
:102EC0000948FEF79BFBAFF26C3104A8FFF7D4F87A
:102ED00004A8FDF75BF982B20A2304A90248FEF7B1
:102EE0008DFB20B010BD000090000020454E5F44D7
:102EF000504C3A0D0A0909456E61626C6564200DFB
:102F00000A000000454E5F44504C3A0D0A0909443E
:102F1000697361626C6564200D0A0000454E5F4173
:102F2000434B5F5041593A0D0A0909456E61626C85
:102F30006564200D0A000000454E5F41434B5F5021
:102F400041593A0D0A090944697361626C6564204C
:102F50000D0A000000000000000000000102030450
:102F6000060708090000000001020304454E414124
:102F70003A0D0A090950303A0925640D0A09095029
:102F8000313A0925640D0A090950323A0925640DC0
:102F90000A090950333A0925640D0A090950343ADF
:102FA0000925640D0A090950353A0925640D0A00FE
:102FB000454E5F5258414444523A0D0A0909503077
:102FC0003A0925640D0A090950313A0925640D0AA8
:102FD000090950323A0925640D0A090950333A09A2
:102FE00025640D0A090950343A0925640D0A0909B6
:102FF00050353A0925640D0A0000000044594E502E
:10300000445F706970653A0D0A090950303A092524
:10301000640D0A090950313A0925640D0A0909505D
:10302000323A0925640D0A090950333A0925640D1D
:103030000A090950343A0925640D0A090950353A3C
:103040000925640D0A000000683000080000002017
:1030500038000000A0200008A03000083800002040
:10306000D0050000B02000080000000000000000B3
:103070000000000000000000000000000000000050
:103080000000000000000000AA44332211000000EC
:1030900001000000100000000000000000A24A042F
:04000005080000ED02
:00000001FF
